:100003007590FE20B43112006130B4FD120061E539
:1000130008B40711E4F508AF08A80704088002C371
:1000230033D8FC800F0508AF08A8077401088002C5
:10003300C333D8FCF4F59020B5C912006130B5FD87
:10004300120061E50870037508081508AF08A807D2
:0E0053007401088002C333D8FCF4F59080A538
:040061007F147E008A
:10006500EF1FAC0670011E4C600B007D027CC7DCE7
:05007500FEDDFC80EB44
:01007A002263
:0300000002007B80
:0C007B00787FE4F6D8FD758108020003D0
:00000001FF
